:2000000093C091C491C6ABC0AAC0A9C0A8C0A7C0B1C64BC5A4C0BDC3A2C0A1C0A0C09FC0E7
:200020009EC09DC09CC0B1C40CC5FDC4E6C42BC5C5C4BBC4B1C497C41B5B48583D252B3657
:200040006420593D252B3664205B25632025632025635D0D001B5B25643B2564482563004C
:200060001B5B25643B256448256300686A6B6C20746F206D6F76652C207370616365203DB5
:20008000206C656674636C69636B0A0031333531204E6F726D616C0A003133353120536C7F
:2000A0006F770A003133353120466173740A0056542D5061696E7420656E61626C65640A06
:2000C000004A6F79737469636B206D6F64650A001B5B324A1B5B485B4D5D415553204225DC
:2000E000732028432953564F203230303920505245535320400A004552524F52004F4B00BB
:20010000253032782000253032782000253032783E2530327820000A00423A25780A000A0E
:2001200052455345543A200011241FBECFE5D4E0DEBFCDBF10E0A0E6B0E0E0EDF7E102C0D2
:2001400005900D92AA36B107D9F710E0AAE6B0E001C01D92AD3AB107E1F7DAD038CB50CF40
:200160000F931F93CF93DF9380E069D380919B0090919C00C0917100D0917200C80FD91FEE
:20018000D0937200C093710080919D0090919E00E0916F00F0917000E80FF91FF093700086
:2001A000E0936F0020916D0030916E00CE0161E270E024D66217730709F46DC090919F00D7
:2001C000992309F465C083E290E09F938F93285D3F4F3F932F9380916B0090916C000CE07C
:2001E00010E09801281B390B3F932F9380E690E09F938F93A0D620919F0020936A0080913D
:2002000071009091720061E270E0F8D5FB0170936E0060936D0080916F009091700062E456
:2002200070E0ECD570936C0060936B003327205D3F4F3F932F93B896FF93EF93061B170B42
:200240001F930F9385E590E09F938F9374D68DB79EB740960FB6F8949EBF0FBE8DBFC0914B
:200260007100D0917200E0916F00F091700090919F00892F992781FF29C040E450E082FFF3
:200280001EC020E430E080FF1EC080E490E021C080E290E09ACFCF0162E470E0AFD5809124
:2002A0006B0090916C006817790709F087CF90919F0080916A00981709F082CFDACF20E219
:2002C00030E080FDE2CF80E290E003C040E250E0D6CF5F934F933F932F939F938F93FF9306
:2002E000EF93DF93CF9388E390E09F938F9323D681E0A5D22DB73EB7245F3F4F0FB6F8946D
:200300003EBF0FBE2DBFDF91CF911F910F910895CFE5D4E0DEBFCDBF89E190E0EBD180E6DD
:2003200090E09F938F9380ED90E09F938F9303D65DD2ABD232D480E491E0F1D4789489D13D
:200340000F900F900F900F909927877090708230910509F4C3C0833091050CF0D5C0019730
:2003600009F4C8C08CE890E09F938F93E4D5DD2480E00F900F902BD440E060E070E080E059
:2003800090E03FD4E1D1882321F0FDD18034910509F0C4D18BE690E09F938F93CCD5C0E44C
:2003A000D1E0EE240F900F9087D2882339F5CCD18823D1F30091A5001091A600E4D1F82EA6
:2003C000B80199278BD58BE6F81609F464C08F1508F450C088E6F81609F46EC08AE6F816CF
:2003E00009F471C080E2F816F9F641E060E070E080E090E006D460D28823C9F269D22E2DE7
:200400003327F901E056FF4F8083C901019663E070E0F4D4E82E882351F64091A000642F39
:20042000772764FF42C020E03FEF8091A1009927282B392B30939C0020939B0065FF32C05F
:2004400080E09FEF6091A2007727682B792B70939E0060939D00477040939F0080919B0040
:2004600090919C00CED3DD2011F4EE24A0CF78DEEE249DCF81E7F816D9F087E7F81651F1CA
:200480008CE6F81609F090CF40E060E070E081E090E0B7D389CF40E061E070E080E090E0A0
:2004A000B0D382CF80E090E0CDCF20E030E0BDCF2197CE0134D478CF40E060E070E08FEF5C
:2004C0009FEF9FD371CF40E06FEF7FEF80E090E098D36ACF2196CE0122D466CF89E990E0E9
:2004E0009F938F9328D580E0A4D0DD2480E00F900F9041CF81EC90E09F938F931CD5DD2405
:2005000081E00F900F9037CF8430910571F0079709F028CF8FEA90E09F938F930CD581E07E
:20052000D82E80E00F900F9026CF84EA90E09F938F9301D582E07DD0DD2480E00F900F90CC
:200540001ACF0F931F93CF93DF93C82FDD27CE0124D400E011E0B0D1882359F0B9D1992738
:200560009F938F931F930F93E6D40F900F900F900F90CE0112D4A0D1882369F7DF91CF919C
:200580001F910F9108951F938FEFB5D18FEFB3D18FEFB1D110E08AEF90E0FFD38DD1882302
:2005A00031F41F5F1B30B9F78FEF90E012C090D1182F86E091E09F938F93BDD40F900F903B
:2005C0001A3A91F784E690E0E8D380E0BADF80E090E01F9108950F931F93CF93DF93082F35
:2005E000162F89D1112319F4CFEFDFEF09C086E190E0D3D361D18823B9F36AD1C82FDD278A
:20060000DF93CF93802F99279F938F938CE091E09F938F9390D48DB79EB706960FB6F89428
:200620009EBF0FBE8DBFCE01DF91CF911F910F9108951F93182F61E085EFCDDF61E088EEA7
:20064000CADF61E0812FC7DF61E084EFC4DF1F910895CF93DF9381E0F2D0CFE1D1E003C09B
:2006600087EF90E08DD4DF93CF9365D48CDF0F900F908823A9F78DEF90E082D461E085EF3B
:20068000AADF61E087EEA7DF61E088EEA4DF61E081E0A1DF61E089EE9EDF86E190E07DD3DD
:2006A0000BD1882319F4C0E0D0E004C011D18770C82FDD2786E145DFDF93CF9389E191E084
:2006C0009F938F9338D461E084EF85DF84E639DF87E191E09F938F932ED48DB79EB70696BC
:2006E0000FB6F8949EBF0FBE8DBFCE01DF91CF9108950895292F332720BD89B91092730074
:20070000809173008093740086E880BD88E98AB960E070E085E993E098D308951AB860E0E4
:2007200070E089E793E091D308951F93182F8A3019F05D9BFECF03C08DE0F7DFFACF1CB960
:2007400080E090E01F910895909174008091730020E030E0981711F021E030E0C90108952B
:2007600080917300E5E7F0E0E80FF11D2081809173009927019664E070E040D380937300AB
:20078000822F99270895E0DF8823E9F3E9DF992708951F920F920FB60F9211245F936F93FF
:2007A0007F938F939F93AF93BF93EF93FF93809174009CB1E5E7F0E0E80FF11D9083809194
:2007C00074009927019664E070E018D380937400FF91EF91BF91AF919F918F917F916F9148
:2007E0005F910F900FBE0F901F90189582B38B7E82BB81B38B7E81BB08958091910020E06F
:2008000030E0882311F021E030E0C9010895882339F08C9881B3662339F08A9881B30895D3
:200820008C9A81B36623C9F78A9A81B30895882319F0929A82B30895929882B308958823C7
:2008400061F01092910061E081E0E1DF8AB780648ABF8BB780648BBF08958BB78F7B8BBFA1
:2008600080E0E5DF60E081E0D2DF0895809191008F3F09F0089580E0E2DF8CED82BF89B744
:20088000816089BF84E083BF08951092910010928F0010928E0080E0D2DF85B7826085BFE5
:2008A00089B78E7F89BF0895882319F0949A82B30895949882B3089590918F0080918E0005
:2008C00020E030E0981711F021E030E0C901089580918E00EEE7F0E0E80FF11D20818091E5
:2008E0008E009927019660E170E088D280938E00822F992708951F93182F80919100882333
:20090000E1F79DDF10937D0094E0909391008BEF82BF89B7816089BF93BF80919100882378
:20092000E1F71F91089578941F920F920FB60F9211242F933F934F935F936F937F938F93FB
:200940009F93AF93BF93EF93FF93849B1CC090E880919100E82FFF27E930F10508F093C011
:20096000ED5EFF4F0994992399F489E08093910082E38093790089B7816089BF8DEF82BFD4
:2009800082E083BF80C090E0E3CF992309F471C08FEF8093910077C080E086DF61E081E0A7
:2009A00036DF88E0809391006EC080917C0091E089277ADF87E08093910065C080917D0023
:2009C000817072DF80917D0090917C008170892780937C0080917D00869580937D00809130
:2009E0007A00815080937A0080917A00882309F04AC086E08093910046C0992349F2E0916E
:200A00008F00FF2780919000E258FF4F808380918F009927019660E170E0F0D180938F000A
:200A20001092910030C080917C00982790937C0080917C00882309F4ABCF83E080939100F2
:200A400022C0809190008695892B8093900080917C00982790937C0080917A008150809347
:200A60007A0080917A00882371F482E0809391000AC081E08093910088E080937A001092F5
:200A80007C0010929000F2DEFF91EF91BF91AF919F918F917F916F915F914F913F912F9178
:200AA0000F900FBE0F901F9018951F920F920FB60F9211242F933F934F935F936F937F9366
:200AC0008F939F93AF93BF93EF93FF9390919100993069F09F3F01F1943059F180917B00DC
:200AE000882309F445C0815080937B0045C0829B09C0849B07C089B78E7F89BF13BE109211
:200B000091003AC080917900882391F18091790081508093790030C01092910080E087DEC4
:200B200080E0C2DE81E08BDE89B78E7F89BF13BE23C084E180937B0089B7816089BF12BE76
:200B400093BF80E0B1DE60E080E061DE61E080E05EDE8AB780648ABF8BB780648BBF88E052
:200B600080937A0010927C0085E08093910004C08FEF809391007ADEFF91EF91BF91AF91E3
:200B80009F918F917F916F915F914F913F912F910F900FBE0F901F90189585B3807E85BBB8
:200BA00084B3807E84BB8B98939888B3897F88BB87B3897F87BB8BB78F778BBF85B7837F99
:200BC00085BF85B7886085BF1092920008958093920080919200882319F0813079F00895E5
:200BE0001EBC87B3866087BB88B3866088BB8AB780688ABF8BB780688BBF08951EBC1FBC1D
:200C000008951F939C0180919200882321F0813009F083C046C010919A00120F1F73109305
:200C20009A0090919900960F9F7390939900552740FF2CC0A19A84B341FF2CC0A09A84B337
:200C400042FF2CC0A29A84B3E0919300F091940048EC949FC001112460E670E0CFD0E60F54
:200C6000F71F2091930030919400149FC001112460E670E0C3D0260F371FF0939800E093DA
:200C80009700309396002093950047C0A19884B341FDD4CFA09884B342FDD4CFA29884B302
:200CA000D3CF84B3807E84BB37FD32C0A39884B3121613067CF5A49A84B377FD24C0A298CD
:200CC00084B3161617060CF5A09A84B3552740FF14C0A19A84B341FF13C0BA9A87B38FEF02
:200CE0009EEF9DBD8CBD1FBC85E08EBD88B7846088BF89B7846089BF10C0A19884B3EBCF69
:200D0000BA9887B3ECCFA29A84B3A09884B3DECFA39A84B3A49884B3D0CF1F910895909307
:200D200094008093930008951F920F920FB60F9211248F939F931EBC80EA8FBD8FB58C60DB
:200D40008FBD80EF8FBD1DBC1CBC80919700909198009BBD8ABD809195009091960099BD28
:200D600088BD82E08EBD9F918F910F900FBE0F901F9018951F920F920FB60F9211248F93BB
:200D800084B3807E84BBBA9889B78B7F89BF8F910F900FBE0F901F901895009771F19C01DE
:200DA000220F331F280F391F220F331F220F331F222359F015BC14BC23BD88B7806888BF9E
:200DC00087E085BD08B607FEFDCF13BC14BC432F55274115510581F020E030E097E015BCD9
:200DE00088B7806488BF95BD08B606FEFDCF2F5F3F4F4217530799F715BC089597FB092E13
:200E000007260AD077FD04D00CD006D000201AF4709561957F4F0895F6F7909581959F4F27
:200E20000895AA1BBB1B51E107C0AA1FBB1FA617B70710F0A61BB70B881F991F5A95A9F7F2
:200E400080959095BC01CD0108950F931F93CF93DF938C01EB01892B11F4672BB9F16EE04C
:200E600070E081E090E0BED2FC01892B79F180E88383209771F0D387C28781E883838091FD
:200E8000A3009091A400892B21F4F093A400E093A30001151105E1F01187008783818260E2
:200EA00083838091A5009091A600892B89F4F093A600E093A5008091A7009091A800892B08
:200EC00039F4F093A800E093A70002C0E0E0F0E0CF01DF91CF911F910F9108950F931F936D
:200EE000CF93DF938C01EB018B81992781FF1BC082FF0DC02E813F818C819D812817390717
:200F000064F4E881F9810193F983E88306C0E885F985802F0995892B31F48E819F8101967E
:200F20009F838E8302C00FEF1FEFC801DF91CF911F910F910895A2E0B0E0E0EAF7E020C493
:200F4000E7E0F0E0EC0FFD1F61917191FA83E983E091A500F091A60083818860838349810D
:200F60005A818091A5009091A6003CD0E091A500F091A6002381277F2383E2E022961CC486
:200F80000F931F93CF93DF93EC01E091A500F091A600838181FF1EC000E010E00BC0FD0104
:200FA00020853185BD01F9010995892B11F00FEF1FEF2196FE018491A091A500B091A60037
:200FC000882369F7ED01E885F985BD018AE00995892B11F00FEF1FEFC801DF91CF911F915D
:200FE0000F910895ABE0B0E0E7EFF7E0BBC32C015B018A01FC0117821682838181FD04C0E6
:201000008FEF9FEFECC18301F2013381F50133FD859133FF81915F01882309F4DAC1853212
:2010200039F433FD859133FF81915F01853289F4B201992753DFE8CF982FFFE1FF15F8F066
:201040009B3291F09C3250F4903281F09332B9F413C0982FFF24CC248824F2CF9D3249F069
:20106000903369F421E028C042E0F42A54E0F52A2CC088E0F82A29C0E0E1FE2A26C0F7FCB3
:201080002EC0292F20532A3090F4F6FE07C08AE0889EC0011124822E880E17C08AE0C89E8B
:2010A000C0011124C22EC80EF0E2FF2A0EC09E3229F4F6FC8EC120E4F22A07C09C3619F4B7
:2010C00040E8F42A02C0983651F4F50133FD859133FF81915F01882309F0AECF90E0892FCC
:2010E0008554833018F08052833038F424E0622E712C600E711E8FE30FC0933631F0933788
:2011000099F0933509F05EC025C092E0692E712C600E711EF801808189838E010F5F1F4F6E
:2011200081E0882E912C12C0B2E06B2E712C600E711EF80100811181F6FC03C06FEF7FEFB7
:2011400002C0682D7727C801A2D24C01AFE7DA2EDF2015C0F2E06F2E712C600E711EF8019C
:2011600000811181F6FC03C06FEF7FEF02C0682D7727C8017AD24C01E0E8DE2EDF28D3FED8
:2011800008C0EE24FF2419C0B20180E290E0A6DECA948C2D992788169906B0F3F2CFF801FF
:2011A000D7FC8591D7FE81918F01B201992796DEC110CA940894E11CF11CE814F90479F7AA
:2011C00010E002C1943611F0993691F5F7FE0BC074E0672E712C600E711EF801608171812D
:2011E000828193810EC062E0662E712C600E711EF801808191819C01B901882777FD8095FF
:20120000982F1F2D1F7697FF08C090958095709561957F4F8F4F9F4F10687E010894E11C69
:20122000F11C2AE030E0A7013DD2982E9E184DC0953729F43FEEF3222AE030E022C049EFE8
:20124000F4229F3661F0903720F4983509F0C1C012C0903739F0983709F0BBC005C028E05E
:2012600030E00FC050E1F52AF4FE02C084E0F82A20E130E006C0F4FE02C0E6E0FE2A20E18B
:2012800032E0F7FE0BC054E0652E712C600E711EF80160817181828193810CC042E0642EB8
:2012A000712C600E711EF80180819181AC01BA0188279927AE014F5F5F4FF4D19E012F5FB4
:2012C0003F4F982E921A1F2D1F7716FD02C0D12E05C09EEFD92ED122981410F0092D0CC05E
:2012E0002D2D332724FF19C022FF02C0082D08C08EEED82ED122082D2D2D332724FF0EC00F
:20130000FE01E90DF11D8081803319F459EED52209C00F5F22FF06C004C0082D8D2D8678FC
:2013200009F00F5FED2CFF24E3FC11C0E0FE0CC00C1508F052C08C2C801A890C0CC0B2011F
:2013400080E290E0CBDD0F5F0C15C8F304C00C1510F4C01A01C0CC24E4FE0FC0B20180E38E
:2013600090E0BCDDE2FE1CC0E1FE03C088E590E002C088E790E0B2010CC08D2D867881F0E0
:20138000E1FE02C08BE201C080E2D7FC8DE2B2019927A4DD05C0B20180E390E09FDD8A9401
:2013A0009814C8F3192D1150FE01E10FF11D8181B201992793DD112309F402CFF4CFB201C5
:2013C00080E290E08BDD11508C2D81951817B9F71ACEF2018681978102C0892CBCCFE0E107
:2013E0002B96DCC10F931F93CF93DF93869F8001879F100D969F100D1124C8010DD0EC0164
:20140000009721F0A80160E070E03AD1CE01DF91CF911F910F910895CF93DF93AC0102973A
:2014200010F442E050E0E091AB00F091AC0020E030E0C0E0D0E022C0808191818417950781
:20144000C8F08417950769F482819381209719F09B838A8304C09093AC008093AB00CF011D
:2014600027C02115310519F08217930718F49C01DF01BE01EF010280F381E02D3097E1F604
:201480002115310501F1C901841B950B8430910588F4FD01828193816115710521F0FB0111
:2014A0009383828304C09093AC008093AB00CD01029645C0FD01E80FF91F419351930297F7
:2014C0008D939C9338C08091A9009091AA00892B41F480916600909167009093AA00809378
:2014E000A90020916400309165002115310541F42DB73EB78091680090916900281B390B04
:20150000E091A900F091AA00E217F307B0F42E1B3F0B2417350788F0CA010296281739078B
:2015200060F0CF01840F951F02969093AA008093A90041935193CF0102C080E090E0DF9199
:20154000CF910895CF93DF939C01009709F48AC0EC0122971B821A82A091AB00B091AC0097
:20156000109719F040E050E011C088819981820F931F2091A9003091AA008217930721F526
:20158000D093AA00C093A9006DC0DC01AC17BD0700F1BB83AA83FE0121913191E20FF31FDF
:2015A000EA17FB0771F48D919C911197280F391F2E5F3F4F39832883FD01828193819B838C
:2015C0008A834115510559F4D093AC00C093AB0049C0FD0182819381AD010097B1F6FA01F3
:2015E000D383C28321913191E20FF31FEC17FD0769F488819981280F391F2E5F3F4FFA01AD
:20160000318320838A819B8193838283E091AB00F091AC00A0E0B0E0828193819F0100978A
:2016200019F0FC01D901F8CFAF014E5F5F4F80819181840F951F2091A9003091AA00821740
:20164000930781F4109729F41092AC001092AB0003C0FD0113821282425050405093AA0083
:201660004093A900DF91CF910895FC010590615070400110D8F7809590958E0F9F1F08957C
:20168000DC0101C06D9341505040E0F70895FC016150704001900110D8F7809590958E0F71
:2016A0009F1F0895FA01AA27283051F1203181F1E8946F936E7F6E5F7F4F8F4F9F4FAF4FD6
:2016C000B1E03ED0B4E03CD0670F781F891F9A1FA11D680F791F8A1F911DA11D6A0F711D74
:2016E000811D911DA11D20D009F468943F912AE0269F11243019305D3193DEF6CF01089548
:20170000462F4770405D4193B3E00FD0C9F7F6CF462F4F70405D4A3318F0495D31FD405279
:20172000419302D0A9F7EACFB4E0A6959795879577956795BA95C9F700976105710508956C
:201740009B01AC010A2E06945795479537952795BA95C9F7620F731F841F951FA01D08955B
:201760002F923F924F925F926F927F928F929F92AF92BF92CF92DF92EF92FF920F931F93D7
:20178000CF93DF93CDB7DEB7CA1BDB0B0FB6F894DEBF0FBECDBF09942A88398848885F8487
:2017A0006E847D848C849B84AA84B984C884DF80EE80FD800C811B81AA81B981CE0FD11DAD
:2017C0000FB6F894DEBF0FBECDBFED010895FFCF323137000000AD002000FFFFFFFFFFFF08
:2017E000FFFFFFFFFFFFFFFFFFFFFFFFFFFFFFFFFFFFFFFFFFFFFFFFFFFFFFFFFFFFFFFF09
:20180000FFFFFFFFFFFFFFFFFFFFFFFFFFFFFFFFFFFFFFFFFFFFFFFFFFFFFFFFFFFFFFFFE8
:20182000FFFFFFFFFFFFFFFFFFFFFFFFFFFFFFFFFFFFFFFFFFFFFFFFFFFFFFFFFFFFFFFFC8
:20184000FFFFFFFFFFFFFFFFFFFFFFFFFFFFFFFFFFFFFFFFFFFFFFFFFFFFFFFFFFFFFFFFA8
:201F00000FE50DBF04E00EBFA89504B703FD1AC033D00FE43AD0A89508E101BD0FE001BDED
:201F20005F9BFECF0CB10335D9F72227A89535D0213029F0A8954ED052D0A895F7CF29D0A7
:201F40000734E9F7002704BF01B5086101BD002701BD0024112400274424552400E40BB9B1
:201F600000270AB906E800BD002700BD002709B9002707BF45C0FFCF00E000BD09E109B9F6
:201F800008E10AB906E800BD08955D9BFECF0CB908955F9BFECF0CB10895FBDF0035E9F716
:201FA00000E7F3DFF6DFF1DF0F3F91F0502EF1DFECDF402EEE27FF27ECDFE7DF002EE9DFAB
:201FC000E4DF102E11E012D03296E034A9F701C021E00895E42DF52D13E008D00895E42DA6
:181FE000F52D15E003D001D0089511E107B700FDFDCF17BFE895089528
:00000001FF
