:101F00000FE50DBF04E00EBFA89504B703FD1AC08E
:101F100033D00FE43AD0A89508E101BD0FE001BD30
:101F20005F9BFECF0CB10335D9F72227A89535D09A
:101F3000213029F0A8954ED052D0A895F7CF29D0BE
:101F40000734E9F7002704BF01B5086101BD002788
:101F500001BD0024112400274424552400E40BB9BA
:101F600000270AB906E800BD002700BD002709B90F
:101F7000002707BF45C0FFCF00E000BD09E109B958
:101F800008E10AB906E800BD08955D9BFECF0CB9D3
:101F900008955F9BFECF0CB10895FBDF0035E9F794
:101FA00000E7F3DFF6DFF1DF0F3F91F0502EF1DFB6
:101FB000ECDF402EEE27FF27ECDFE7DF002EE9DF26
:101FC000E4DF102E11E012D03296E034A9F701C000
:101FD00021E00895E42DF52D13E008D00895E42DB7
:101FE000F52D15E003D001D0089511E107B700FDEC
:081FF000FDCF17BFE89508952D
:00000001FF
